:1000000045C000006AC00000A3C0000047C0000057
:1000100045C0000043C0000041C000003FC00000D8
:100020003DC000003BC0000039C0000037C00000E8
:1000300035C0000033C0000031C000002FC00000F8
:100040002DC000002BC0000029C0000027C0000008
:1000500025C0000023C0000021C000001FC0000018
:100060001DC000001BC0000019C0000017C0000028
:1000700015C0000013C0000011C000000FC0000038
:100080000DC000000BC0000009C0000011241FBEFD
:10009000CFEFD0E1DEBFCDBF02D088C0B1CF8FEFB0
:1000A00084BB15BA81B381BB82B3836082BB89B73D
:1000B000836089BFEAE6F0E080818A60808378947B
:1000C000FFCFFC01408121E030E002C0220F331F4E
:1000D0006A95E2F7242B208308951F920F920FB6A2
:1000E0000F9211240BB60F922F933F934F935F9370
:1000F0006F937F938F939F93AF93BF93EF93FF93F0
:1001000060E085E390E0DDDF61E085E390E0D9DF4A
:10011000FF91EF91BF91AF919F918F917F916F91DF
:100120005F914F913F912F910F900BBE0F900FBE9B
:100130000F901F901895FC01908121E030E002C0E3
:10014000220F331F6A95E2F7209529232083089513
:100150001F920F920FB60F9211240BB60F922F938E
:100160003F934F935F936F937F938F939F93AF933F
:10017000BF93EF93FF9360E085E390E0DCDF61E005
:1001800085E390E0D8DFFF91EF91BF91AF919F9110
:100190008F917F916F915F914F913F912F910F9030
:1001A0000BBE0F900FBE0F901F901895F894FFCFC5
:00000001FF
